:020000040800F2
:1000000048070020350100083D0100083F010008B5
:1000100041010008430100084501000800000000FC
:100020000000000000000000000000004701000880
:1000300049010008000000004B0100084D010008C4
:100040004F0100084F0100084F0100084F01000850
:100050004F0100084F0100084F0100084F01000840
:100060004F0100084F0100084F0100084F01000830
:10007000510F0008710F0008950F0008A70F000826
:100080004F0100084F0100084F0100080000000068
:100090000000000000000000000000004F01000808
:1000A0004F0100084F0100084F0100084F010008F0
:1000B0004F010008793700084F0100084F01000880
:1000C0004F0100084F0100084F0100084F010008D0
:1000D0004F010008413900084F0100084F01000896
:1000E0004F0100084F0100084F0100080000000008
:1000F0000000000000000000000000000000000000
:1001000000000000000000000000000000000000EF
:1001100000000000000000004F0100084F0100082F
:10012000DFF80CD000F040F800480047693E0008B6
:10013000480700200648804706480047FEE7FEE7DC
:10014000FEE7FEE7FEE7FEE7FEE7FEE7FEE7FEE787
:100150007137000821010008202A04DB203A00FA48
:1001600002F1002070479140C2F1200320FA03F30E
:1001700019439040704740EA01039B0703D009E010
:1001800008C9121F08C0042AFAD203E011F8013B83
:1001900000F8013B521EF9D27047421C10F8011BB7
:1001A0000029FBD1801A7047064C074D06E0E06835
:1001B00040F0010394E8070098471034AC42F6D3AE
:1001C000FFF7B2FF5C4700087C47000870B501EB01
:1001D000020410F8015B15F0070301D110F8013B90
:1001E0002A1106D110F8012B03E010F8016B01F879
:1001F000016B5B1EF9D12B0705D40023521E0FD4CF
:1002000001F8013BFAE710F8013B02F10202A1EB11
:10021000030303E013F8015B01F8015B521EF9D5FB
:10022000A142D6D3002070BD0029816802D041F0E0
:10023000010101E021F00101816070470D4910B515
:10024000401811D04FF48064A04210D0B0F5C05FC8
:100250000FD10121CC03204602F0C2FA2046BDE8AE
:100260001040002102F0BCBA01214C02F3E7012149
:10027000F1E710BD00DCFEBF014600208968490798
:1002800000D501207047C06C80B270470246002044
:1002900012680A4200D00120704701460020896898
:1002A000090700D50120704710B542680E4B0C7944
:1002B0001A400B6842EA04221343436082680B4BE6
:1002C0001A40D1E9024323434C7942EA44021343E2
:1002D0008360C26A097C22F47002491EC9B242EAF4
:1002E0000151C16210BD0000FFFEF0FFFDF7F1FFFC
:1002F00070B5072409290AD9C568A1F10A0606EBD9
:100300004606B440A543B3401D43C56007E00569F8
:1003100001EB4106B440A543B3401D4305611F23D3
:10032000072A09D2446B521E02EB820293409C437F
:1003300091400C43446370BD0D2A09D2046BD21F57
:1003400002EB820293409C4391400C43046370BDD6
:10035000C46A0D3A02EB820293409C4391400C43E5
:10036000C46270BD816841F0080181607047002956
:10037000816802D041F4A00101E021F4A001816074
:100380007047816841F00401816070472DE9F041B8
:10039000254D044600264268A988052090476268DA
:1003A000698804209047002162680320904700215B
:1003B0006268012090476268A988052090476268BA
:1003C0006988042090470121626808469047626866
:1003D000A988052090476268698804209047002119
:1003E000626802209047002776086268A988052085
:1003F0009047626869880420904700216268084637
:100400009047002818BF46F08006781CC7B2082F16
:10041000EAD36268A9880520904762686988042049
:1004200090473046BDE8F081300000202DE9F041D2
:10043000234D0F4604464268A9880520904762680C
:1004400069880420904700216268032090470121B9
:100450006268084690476268A988052090476268EC
:1004600069880420904701216268084690476268C5
:10047000A988052090476268698804209047002673
:10048000626807F00101012090476268A988052091
:1004900090476268698804209047701C7F08C6B244
:1004A000082EEDD300216268022090476268A98877
:1004B0000520904769886268BDE8F0410420104734
:1004C000300000202DE9FF4F81B004464FF6017047
:1004D0005FEA03099346009076D000BF4FF0800A90
:1004E000B9F1800F38BFCA460AF0FF0694F824100D
:1004F0002046029DFFF79AFF20460621012200F0C8
:10050000B3F9204600F0BCFB00285BD1204600F088
:10051000D5FB002856D12046012100F005F9C0B2D4
:100520000D284FD120464FEA1B21012200F09CF9F3
:10053000204600F0A5FB20460BF0FF01012200F051
:1005400093F9204600F09CFB20463146012200F042
:100550008BF9204600F094FB204600F0AFFB2046CC
:10056000012100F0E1F8C0B20D282BD100274FF097
:10057000FF08002E11D9204600F0A0FB20460121E3
:1005800000F0D2F8C0B208EA0008002D18BF05F844
:10059000010B781CC7B2B742EDD3012050EA082006
:1005A00010D00099014001F47F41C0B2084300908F
:1005B000029800281CBF50440290D344B9EB0A09AA
:1005C0008CD101E000200090009805B0BDE8F08FCC
:1005D0002DE9F04180461C0017460E464FF0010001
:1005E00008BFBDE8F0818025802C38BF2546EBB2DE
:1005F0003A463146404600F00CF8002808BFBDE8F6
:10060000F081002E18BF2E442F44641BEBD1BDE8AF
:10061000F0812DE9F0410E461D461746044690F83C
:100620002410FFF703FF07210122204600F01CF9E8
:10063000204600F025FB20B1022100202172BDE8F8
:10064000F081204600F03AFB002862D101212046CB
:1006500000F06AF8C0B20D2804D0042100202172F5
:10066000BDE8F081390A0122204600F0FDF820465D
:1006700000F006FB20B1052100202172BDE8F081C9
:10068000F9B20122204600F0EFF8204600F0F8FA17
:1006900020B1062100202172BDE8F0810122294607
:1006A000204600F0E1F8204600F0EAFA20B10721E8
:1006B00000202172BDE8F081204600F0FFFA40BB27
:1006C0000121204600F030F8C0B20D2804D00821E6
:1006D00000202172BDE8F0810027002D15D9FF21EF
:1006E000002E18BF16F8011B2046012200F0BCF8AE
:1006F000204600F0C5FA20B1092100202172BDE892
:10070000F081781CC7B2AF42E9D3204600F0D6FA98
:1007100020B1032100202172BDE8F0810020207269
:100720000120BDE8F08100002DE9F8430446481E91
:100730004C4DC7B26268A9880520904762686988F5
:1007400004209047002162680320904700216268DE
:10075000012090476268A9880520904762686988EF
:100760000420904700216268012090476268A988B0
:10077000052090476268698804209047626807F006
:100780000101012090476268A988052090476268AE
:100790006988042090476268C7F3400101209047B0
:1007A0006268A9880520904762686988042090479C
:1007B0000020009006460146626802209047022110
:1007C000684603F002FA4FF001086268A988052024
:1007D0009047626869880420904700216268084653
:1007E000904740EA4600C6B206F0030001280CD04C
:1007F000684603F0DDF90028E7D0208840F00100CA
:1008000020804FF0FF30BDE8F883B807C00E00F13C
:100810000809C01D002608FA00F83746B9F1000F94
:1008200014D976086268A9880520904762686988AB
:10083000042090470021626808469047002818BFAE
:1008400046EA0806781CC7B24F45EAD36268A98811
:100850000520904762686988042090473046BDE8CB
:10086000F8830000300000202DE9F843484D571E62
:100870000E4604464268A988052090476268698848
:10088000042090470021626803209047012162689C
:10089000084690476268A988052090476268698881
:1008A0000420904700216268012090476268A9886F
:1008B000052090476268698804209047626807F0C5
:1008C0000101012090476268A9880520904762686D
:1008D0006988042090476268C7F34001012090476F
:1008E0006268A9880520904762686988042090475B
:1008F000B807C00E00F108080027B8F1000F11D9A1
:10090000626806F00101012090476268A98805200D
:1009100090476268698804209047781C7608C7B2BF
:10092000B845EDD8002000900646014662680220D6
:1009300090470221684603F048F96268A9880520BB
:1009400090476268698804209047002162680846E1
:10095000904740EA4600C6B206F0030001280CD0DA
:10096000684603F025F90028E7D0208840F0010010
:1009700020804FF0FF30BDE8F8836268A988052029
:10098000904762686988042090470020BDE8F8839A
:10099000300000200022AFF3008070B5044690B212
:1009A00007291DD2DFE801F004061272787F860065
:1009B000104670BD022108252046FFF737FD20466E
:1009C00029460122FFF750FF012070BD100CC2F331
:1009D000072507D001281AD002282DD0032840D09F
:1009E000002070BD8521D6B22046FFF71FFD2046AE
:1009F00031460122FFF738FF86212046FFF716FD1A
:100A0000204629460122FFF72FFF012070BDAB21B0
:100A1000D6B22046FFF70AFD204631460122FFF7F5
:100A200023FFAC212046FFF701FD20462946012285
:100A3000FFF71AFF012070BDCE21D6B22046FFF786
:100A4000F5FC204631460122FFF70EFFCF2120465C
:100A5000FFF7ECFC204629460122FFF705FF0120A5
:100A600070BDD221D6B22046FFF7E0FC20463146C9
:100A70000122FFF7F9FED3212046FFF7D7FC2046DD
:100A800029460122FFF7F0FE012070BD2046BDE897
:100A9000704092B2022180E740F480322046BDE8E7
:100AA0007040022179E740F400322046BDE87040F2
:100AB000022172E740F440322046BDE87040022136
:100AC0006BE72DE9F0410746581E14460E46C5B2A5
:100AD00083B12146601CC4B23846FFF7A7FC012150
:100AE0003846FFF721FE06F8010B2800A5F10101A9
:100AF000CDB2EED10120BDE8F08170B505460021F0
:100B0000FFF794FC01212846FFF70EFE0446012161
:100B10002846FFF78BFC01212846FFF705FE44EA33
:100B2000002080B270BD70B5044644F620650426EE
:100B30000221FFF77BFC022101222046FFF794FEF1
:100B4000314601222046FFF78FFE01210A4620464A
:100B5000FFF78AFE2846BDE8704000F039BA70B54C
:100B6000002516460446012908BF042502D00229A3
:100B700008BF08250221FFF759FC20460221012267
:100B8000FFF772FE204629460122FFF76DFE012184
:100B900020460A46FFF768FE002E08BF70BD3046AB
:100BA000BDE8704000F014BA38B50D46044690F820
:100BB0002410FFF73BFC204608210122FFF754FEDA
:100BC000204600F05DF818B10A210020217238BDDE
:100BD000204600F073F898B920460121FFF7A4FDE4
:100BE000C0B20D2835D1204629460122FFF73CFE30
:100BF000204600F045F8A0B9204600F05FF818B193
:100C000003210020217238BD20460121FFF78CFD11
:100C1000C0B20D281DD164220021204600F056F9F3
:100C200018B109210020217238BDC821684602F0A0
:100C3000CCFF124D2046FFF7A9FB2870287810F052
:100C4000010F0AD020460121FFF76EFDC0B20D282A
:100C500010D008210020217238BD684602F0A8FF9C
:100C60000028E7D0208840F0020121800F210020D9
:100C7000217238BD00202072012038BD30000020D4
:100C800038B504466421684602F09FFF0A4D2046AD
:100C9000FFF77CFB2870287810F0020008BF38BDF1
:100CA000684602F085FF0028F1D0208840F002005D
:100CB0002080012038BD00003000002038B50446F7
:100CC0006421684602F081FF0A4D2046FFF75EFB73
:100CD0002870287810F0010F01D0002038BD684638
:100CE00002F066FF0028F0D0208840F0020020804B
:100CF000012038BD3000002030B4054600202C4CC7
:100D00002C4ADFF8B4C0062D24BF30BC7047DFE8A2
:100D100005F00309131C24302848007830BCC0F3C8
:100D200080107047002918BF01214FF4800242EA69
:100D30008111216030BC704713684FF0401123F0DF
:100D4000706343F080631360F3E7136823F070630C
:100D500043F04073136030BC7047C9B2ACF80C105C
:100D6000BCF8081011F0010FFAD0BCF80C1030BC20
:100D700070470022082912D2DFE801F011040608AA
:100D80000A0C0E1008220AE0102208E0182206E0E1
:100D9000202204E0282202E0302200E03822BCF8C1
:100DA000001021F038011143ACF8001030BC70473E
:100DB00010080140000801400030014008080140CF
:100DC00010B5044600214268032090470021626864
:100DD00001209047114862688188052090470021D2
:100DE00062680420904700216268012090470A2031
:100DF00000F0EEF801216268084690470F21626812
:100E0000042090470021626802209047208820F04B
:100E1000030040F00400208010BD000030000020DE
:100E20002DE9F0411E4694460D460746324661467E
:100E3000069B00F017F8002808BFBDE8F0810024E9
:100E4000002E0CD93846FFF739FF38460121FFF74D
:100E50006BFC05F8010B601CC4B2A642F2D801205D
:100E6000BDE8F0812DE9F0410F461D4616460446C7
:100E700090F82410FFF7DAFA204629460122FFF7FE
:100E8000F3FC2046FFF7FCFE50B92046FFF716FFA3
:100E900030B920460121FFF747FCC0B20D2802D02F
:100EA0000020BDE8F081204639460122FFF7DCFC36
:100EB0002046FFF7E5FE204631460122FFF7D4FC2D
:100EC0002046FFF7DDFE0120BDE8F081F8B51546AC
:100ED000044600260122FFF7C7FC2946684602F0B7
:100EE00074FE0B4D2046FFF751FA2870287810F059
:100EF000020F0AD0684602F05BFE0028F2D020887C
:100F000040F0020020801020F8BD3046F8BD0000FF
:100F10003000002070B5002413E004F001054FF00C
:100F2000804040EA853009490861012000F098F8C6
:100F300006480089B5EBD03F01D0002070BD601C91
:100F4000C4B20A2CE9DB0120F8E7000000100140E0
:100F5000064810B5007830B101F0F4FEBDE810404D
:100F6000202000F029B801F081FDF7E7A40000205F
:100F7000074810B5007838B101F042FFBDE81040D5
:100F80004FF4007000F018B801F0CEFDF6E7000055
:100F9000A400002010B502F08BF8BDE810404FF41B
:100FA000005000F009B810B502F0E0F8BDE81040BC
:100FB0004FF40030AFF30080C10002D50249086051
:100FC0007047024948607047040402400000024034
:100FD0002DE9F04782B0044602F0DAFB07191F4CF6
:100FE000DFF86880DFF868901A4B1B4DA4F10C06FF
:100FF000A4F1100AD8F800005968B0FBF9F0226893
:10100000D3F800C0891A4CF0010CC3F800C0D5F821
:1010100000C04CF0807CC5F800C0814207D3B1FB12
:10102000F0F101FB00202060306808443060DAF8FD
:1010300004000097019001A9684602F008FF00280B
:1010400001D100BFD6E702B0BDE8F0870C02002056
:1010500040420F00001000E0FCED00E078000020AE
:10106000F0B5471E90B9F0BD4FF47A7600256CB10B
:1010700002F0C0FB201AF7D53444801905F10105B0
:10108000FAD4002DF0D07F1EEED2F0BD02F0B2FBFC
:1010900000F57A74E8E7000001490020C860704755
:1010A000840000200248A0F11001C86070470000D1
:1010B000940000202DE9F84F044690F86E004FF0A0
:1010C0000009C84630B194F86E10606802F0B8FFAD
:1010D00084F86E80A08910282FD0606803F02BF868
:1010E00000F0FF0A94F86F0010283BD0BAF1000F0F
:1010F0004DD0206810F80900009000287DD000270E
:1011000001253E46A4F80C80206809EB050110F883
:1011100001B084F86C80681CC5B2BBF1000F54D0DC
:10112000574534D26068394602F0A4FF83453BD06E
:10113000A189B1F5805F2BD080E0606802F0FBFFF1
:1011400010F0FF0008BFBDE8F88F606802F0E4FF10
:101150000D2818BF0A28F0D1A4F80C804FF4803075
:10116000BDE8F88FBAF1000F7CD06068002102F072
:1011700081FF0D2818BF0A28B8D16068012102F04C
:101180005FFF606802F0D7FF10F0FF0AEDD169E061
:1011900094F86F10102902D0681EC5B212E00D2815
:1011A00018BF0A28F8D149E0A089B0F5805F07D1BF
:1011B000A01990F84C10791A80F85C10701CC6B217
:1011C000A4F80C80781CC7B29EE7216809EB0500E3
:1011D000085C691CCDB2012820D0022851D0FF281C
:1011E00092D1206809EB0501405C21686A1C4944E2
:1011F000895C40EA0120E08100E02AE084F86E701A
:1012000084F86C60102E06D2A01980F85C80701CE7
:10121000C6B2102EF8D3E089BDE8F88F574521D229
:101220006068394602F026FF0D2818BF0A28A089F9
:101230001BD0B0F5805F08BFA81EAED00098484410
:101240001FFA80F9206810F80900009000287FF448
:1012500056AF94F86F00102819BF012084F86E0073
:101260001020A0810020BDE8F88FB0F5805FA9D1E3
:10127000A01990F84C10791A80F85C10701CC6B256
:10128000A0E7A01980F84C704FF48050A0813BE794
:1012900090F86C00704700002DE9F04700264718D1
:1012A000054697F84C8090F86C0088422FD997F843
:1012B0005C000024A04288BF4FF0010927D900BF7D
:1012C00008EB0401686802F0D5FEA0F1300109299D
:1012D00098BF88B20ED9A0F16101052998BF57388F
:1012E00007D9A0F14101052994BF37384FF47F4059
:1012F00000D880B210F47F4F14BF85F86D9040EA9B
:101300000616601CC4B297F85C00A042D8D83046DC
:10131000BDE8F0872DE9F05F00EB010B1E469BF85E
:101320004CA090460446002790F86C00B9468842CD
:1013300055D94CE00AEB0701781CC7B2606802F08F
:1013400099FEA0F13001092998BF8DB20ED9A0F104
:101350006101052998BF573807D9A0F14101052936
:1013600094BF37384FF47F4500D885B20AEB0701A8
:10137000781CC7B2606802F07DFEA0F13001092937
:1013800098BF88B20ED9A0F16101052998BF5738DE
:1013900007D9A0F14101052994BF37384FF47F40A8
:1013A00000D880B245EA000111F47F4F03D001203C
:1013B00084F86D0013E040EA051006F8010B09F10E
:1013C000010000F0FF09A8F1010000F0FF089BF800
:1013D0005C00B91C884202D3B8F1000FAAD148467C
:1013E000BDE8F09FFF23AFF300802DE9F0410646F2
:1013F000154696F86C2003F0FF08C3F307208A42D5
:1014000034D9314491F84C7091F85C40002818BFF1
:10141000002C1AD07068394602F02CFE202801D02A
:101420009CB106E0781CC7B2601E10F0FF04F1D139
:101430000BE03819401E81B2706802F01BFE2028B4
:1014400003D1601E10F0FF04F3D1A04588BFA04671
:101450000024B8F1000F09D93919706802F00AFEAA
:1014600005F8010B601CC4B2A045F5D80020287017
:10147000BDE8F08190F86C208A4286BF084490F85D
:101480005C0000207047DDF800C041600260002170
:1014900080F86E10C18180F86F308181C0F808C07B
:1014A000A0F840104FF47A718187704710B50A4850
:1014B00001F0A2F9084880680849B0FBF1F008493A
:1014C000088001F07DFD01F071FD01F091FF02F057
:1014D000FDF802F033F910BD0C02002040420F006D
:1014E0006800002038B5334931481023486032483D
:1014F0000090324A32493348FFF7C5FF0D2002F011
:101500008DF80021084601F0C7F90021012001F003
:10151000C3F96420FFF7A4FD0021022001F0BCF90B
:101520000121022001F0B8F90221084601F0B4F9C6
:101530000321022001F0B0F90421022001F0ACF9EE
:101540006420FFF78DFD20A002F0B6F82248006865
:10155000082102F06FF821A002F0AEF820A002F0FE
:10156000ABF824480068082102F064F82C2002F04F
:1015700055F821480068082102F05CF82C2002F0A0
:101580004DF81E480068082102F054F81CA002F033
:1015900093F8FFF787FD1B4C4FF00110206000F01F
:1015A000B1F819484FF0021121600906016038BDF9
:1015B000F90C0008380000201D360008844300089C
:1015C000840000203C0100202B494E464F3A332C2A
:1015D0004350552049442000002004E00A0D00003B
:1015E0002B494E464F3A342C4445564943452049F1
:1015F00044200000E8F7FF1FECF7FF1FF0F7FF1F84
:101600000D0A000010140140100C014010B500F04C
:10161000D5F8BDE8104000F071BB000010B50C4CCF
:101620000921002301222046FEF762FE0121204607
:10163000FEF79DFE02212046FEF728FE0028F9D085
:101640002046FEF720FE40F69E414843000B10BDA9
:1016500000240140F0B50F22C478017801234FF037
:10166000E0253CB3184C2468467804F4E064C4F5E3
:10167000E064240AC4F10407E2408478BE401440C8
:10168000344322018C07E70E21F003040F49BA40CE
:1016900066183168FF24BC40A143224011433160E9
:1016A000007800F01F018B40400905EB8000C0F876
:1016B0000031F0BD01F01F008340480905EB8000B8
:1016C000C0F88031F0BD00000CED00E000E400E067
:1016D0000A48D0E900106FF0F00319404023194385
:1016E000064AC2E900100648007880F0010040F484
:1016F000803002491031086070470000000C014042
:10170000640000200B48007840F480300A490860EB
:1017100009481038D0E900106FF0F0021140302372
:101720001943054A103AC2E900104FF0021002496D
:101730000860704764000020100C014010B500F0F4
:101740001FF84FF001100C4908600C48D0E9001058
:101750006FF0F003194080231943084AC2E90010D2
:1017600006480C30006820F0020004490C31086083
:10177000FFF754FF10BD000010140140000C0140A1
:101780000C48D0E900106FF0F0021140802319439B
:10179000084AC2E9001007480C30006820F0020037
:1017A00004490C3108600448007840F48030091D79
:1017B00008607047000C0140640000202DE9F047EC
:1017C00090B0FE48FFF776FCFC4F4FF00008050094
:1017D00087F86D801CBFFAA001F06EFF4AF2090184
:1017E000681AF84EF84C8D4200F00F8135DC4AF251
:1017F0000202A5EB02014FF001094FF020009542D3
:1018000008BF84F8059079D01CDC49F20202A5EBF0
:101810000201954262D00BDC002D00F0C581B5F5C8
:10182000104F00F065816FF41040281852D033E05B
:10183000A1F57061FE3955D0012908BF84F80580F3
:101840005CD029E04AF204004FF0500A062923D266
:10185000DFE801F022578592ABCB062808BF4FF096
:10186000000800F0498105DC16D2DFE800F015E53C
:10187000E7FDFBFA772800F07B8106DC072800F003
:101880006181172800F0318106E0782800F0288275
:10189000A0F59A402B3802D0CCA000F066B9CDA0BC
:1018A00001F00AFF6A460021C448FFF79BFD684625
:1018B00001F002FFC9A001F0FFFE6A460121BF4806
:1018C000FFF790FD684601F0F7FEBDA001F0F4FEC1
:1018D00000F00EB9FFF7E0FB00F00AB9FFF7E2FBFA
:1018E00000F006B9C6F80080B448FFF7D1FC20B17B
:1018F0000021B248FFF7D0FC30601020E06000F01B
:1019000053B90021AD48FFF7C7FC30600121AB4857
:10191000FFF7C2FC70600221A848FFF7BDFCB06071
:101920000321A648FFF7B8FCF060A448FFF7B0FC1D
:1019300000280ABFC6F800800128C6F804800221EA
:101940009E48FFF797FD002808BFC6F8089097F853
:101950006D00002808BF302040F02681CEE700212E
:101960009648FFF799FC306097F86D00002808BF93
:10197000402040F01981C1E72169814232D1984B62
:1019800040220021A3F19000FFF7C4FCE070012188
:101990008A48FFF76FFD002804BF97F86D00002804
:1019A0001CD100BFC4F80CA018E02169814219D1F4
:1019B00000218248FFF75EFD20B100217F48FFF73C
:1019C0006BFC3060864B40220121A3F19000FFF7B1
:1019D000A1FCE07097F86D000028E3D04AF20405FE
:1019E00000F0E2B87FA000F0C0B802202071002112
:1019F0007248FFF73FFD20B100217048FFF74CFC13
:101A000020716020E06000F0CFB82069A0F520418F
:101A1000073918BF7CA06CD1714B4022A3F1900014
:101A2000FFF778FCE07097F86D00002804BF702085
:101A3000E0604AF20705B7E07CA096E07EA001F0E6
:101A40003BFEFFF77BFE064601F0EEFD2C2001F089
:101A5000E5FD40F6E4407043000B01F0E5FD7BA09E
:101A600083E047E02CE0FFE77AA001F025FE0021AB
:101A70005248FFF711FC0A281ED2DFE800F00509E2
:101A80000D1D1D1D1D1D1117FFF77AFE74A014E01A
:101A9000FFF738FE74A010E0FFF71AFE74A00CE008
:101AA00076494FF40030086075A006E073494FF0A6
:101AB0000210086074A000E075A001F0FDFD3FE099
:101AC00075A001F0F9FD3D48FFF7E2FB012803D9BD
:101AD00001213A48FFF7E0FB00213848FFF7DCFB23
:101AE000002808BF6EA0E8D0E6E76E4800F09FFD32
:101AF0006DA03AE04FF0010800213048FFF7CCFB21
:101B0000814601262D48FFF7C3FB012806D9012194
:101B10002A48FFF7C1FB060008BF012664A001F0B8
:101B2000CBFD761E0CD300BF09F0FF0001F04AFC8C
:101B3000B8F1000F1CBF022101F07CFD761EF3D22C
:101B40001FA012E05CA001F0B7FD00211B48FFF7C9
:101B5000A3FB5C4A00F001004FF4801141EA001140
:101B60001160012101F066FD15A001F0A5FD1BE04B
:101B700000211248FFF790FB306001210F48FFF76A
:101B80008BFB70600D48FFF783FB00280ABFC6F887
:101B900000800128C6F8048097F86D00002808BF6F
:101BA0004FF480703FF4AAAE97F86D0000281CBF78
:101BB00045A001F081FD002D8CE000003C010020DB
:101BC0000D0A0000AC010020000000204552524FD9
:101BD000520D0A002B4B45593A0000002C00000022
:101BE000CC0100202B57424C4B503A4552524F5299
:101BF000204649525354204E4545442041542B57CA
:101C0000424C4B530D0A00002B57424C4B503A4567
:101C100052524F52204649525354204E454544207B
:101C200041542B574845580D0A0000002B57484592
:101C300058453A4F4B0D0A002B4D454153564343EF
:101C40003A4D4541535552452C0000002C6D560D20
:101C50000A0000002B50524F475643433A00000001
:101C6000332E33204F464600332E33204C4F57003F
:101C7000332E33204849474800000000101401402B
:101C8000352E30204F464600352E30204F4E000076
:101C90004552524F520000002B494E49543A000021
:101CA00043324900380000204F4B0D0A000000006D
:101CB0002B53504952443A002B5350494E53533AF8
:101CC00000000000100801404552524F5220504180
:101CD000520D0A0018BF2561206910B0BDE8F087D9
:101CE0000121024800F0C0FC01A03EE738000020BE
:101CF0002B4442473A52554E0D0A00002DE9F04759
:101D0000FE4C88B0E0682146DFF8F4A3DFF8F493D6
:101D10000026896AE846312800F0128111DC20286B
:101D200075D009DC002804BF08B0BDE8F087102892
:101D300023D011283AD01CE0212877D0302874D045
:101D400017E0F14D702800F0638209DC402800F0B4
:101D50008081502800F09A81602800F0268208E0F7
:101D6000B0F5807F00F09A82A0F58070013800F015
:101D7000CA82E66008B0BDE8F087032000F050FB9F
:101D8000D9F8000010F0010F1CBFDD4800F04FFC37
:101D9000D9F8000010F0020F1CBFD94800F0E9FB91
:101DA000E068401CE06008B0BDE8F087D7A001F013
:101DB00083FCD34800F026FC002101F03BFC2C20E2
:101DC00001F02CFC0021DAF8100001F033FC2C208B
:101DD00001F024FC0021DAF8140001F02BFC2C2087
:101DE00001F01CFC0021DAF8180001F023FC2C2083
:101DF00001F014FCDAF81C0001F05EFC2C2001F06C
:101E00000DFCDAF8200000F0F3B900E00EE003204A
:101E100000F006FB401C18BF6661C1D1BDA001F0F7
:101E20004BFCE66008B0BDE8F0874DE06079002823
:101E300004BF0120A06106D0B148616900F038FB01
:101E4000A061FF280AD0AE48616900F072FBA06172
:101E5000FF2807D0B3A001F02FFCDFE7DAE9050186
:101E6000401A6061DAF81800616908446421606111
:101E70004843DAF81410B0FBF1F020620D2001F0B5
:101E8000CDFBA9A001F018FC0821DAF80C0001F044
:101E9000D1FB2C2001F0C2FB206A01F0C5FB2520FC
:101EA00001F0BCFBDAF814006169884284BF08B015
:101EB000BDE8F0879BA001F0FFFB9EA001F0FCFBBA
:101EC000E66008B0BDE8F087002000F0A9FA401CE9
:101ED0002FD08B4800F04DFBD9F800006062D9F894
:101EE0000410A162D9F80820E262002904BFDAF8E0
:101EF0001410A162002804BFDAF81000606291A0FB
:101F000001F0DAFB0821DAF80C0001F093FB2C2039
:101F100001F084FB0821606A01F08CFB2C2001F0A9
:101F20007DFB0821A06A01F085FB7EA001F0C4FBC7
:101F300036E786A001F0C0FBE66008B0BDE8F08798
:101F4000D9F80C70381F192828BF1C278F4288BF6A
:101F50000F46002F76D03B4641466948626A00F042
:101F600011FB002861D0E7616661E06A01282FD08B
:101F70007CA001F0A1FB6169606A0844082101F0BE
:101F800059FB2C2001F04AFB0221E06901F052FBD1
:101F90002C2001F043FBA661E06900280ED900BFA8
:101FA000D4E905010844022118F8000001F042FBC1
:101FB000A069401CA061E1698142F1D859A001F0FB
:101FC0007BFB606A38446062A06AC01B00F0D5B930
:101FD000E06908EB000111F8011CFF2902D1401E45
:101FE000E061F5D1381A2546042898BFEF61E86909
:101FF000002818BFAE610FD00BD9A96918F80120CD
:10200000FF2A06D16A69491C521CC5E90521814293
:10201000F3D36969401AE861381A04289CBFEF615C
:102020006E61E0690028A3D1CBE74EA001F044FB2C
:102030000821606A01F0FEFA2C2001F0EFFA4BA0B3
:10204000D6E0FFE74BA001F037FBE66008B0BDE843
:10205000F0874BA001F030FB002000F0E1F9401CBC
:1020600008BF49A048D0264800F083FAD9F80000FC
:1020700060620821DAF80C0001F0DCFA2C2001F093
:10208000CDFA0821606A01F0D5FAB3E0D9F8000072
:10209000606241A001F010FB0821606A01F0CAFAF9
:1020A0002C2001F0BBFA0021E07801F0C3FA2C20CB
:1020B00001F0B4FAE078E8B11148FEF734FDE378B6
:1020C00011490F48626A00F0B9FAA0B1A661E07840
:1020D00086420AD2A069285C022101F0ABFAA0690D
:1020E000401CA061E1788842F4D3D9F80000E1787F
:1020F000084455E07EE056E07AE000000000002051
:1021000038000020AC010020CC0100202B444556B3
:1021100049443A002B534C444552453A4552524F9C
:10212000520D0A000D0A00002B534C444552503A00
:10213000000000002B534C444552453A4F4B0D0ACA
:10214000000000002B52424C4B533A002B52424CA1
:102150004B453A4552524F52204445564943454912
:10216000440D0A002B52424C4B503A004552524FFC
:10217000520000002B52424C4B453A4F4B0D0A0087
:102180002B57424C4B533A004552524F5220444534
:1021900056494345494400002B57424C4B503A00A6
:1021A000C9F8000026E080A022E082A001F084FAB5
:1021B000002000F035F9401C24D0804800F0D9F907
:1021C0000021207901F036FA2C2001F027FA0821AD
:1021D000DAF80C0001F02EFA2C2001F01FFADAF8E0
:1021E0001C0001F069FA2C2001F018FADAF820003E
:1021F00001F062FAAFF2D40001F05EFAE66008B0D6
:10220000BDE8F087AFF2800001F056FA2661F1E7F1
:102210006BA001F051FAE0780028EBD0E0780628B6
:1022200038BF69A0E4D32878A0626878E978000212
:1022300040EA0140A97808436062217900291CBF67
:10224000217902290CD2082101F0F4F92C2001F0A7
:10225000E5F90021A06A01F0EDF92C2001F0DEF98A
:10226000D4E90923291D554800F0E8F900289AD03F
:102270002079022828BF58A0BAD2A661A06A0028F7
:10228000B8D9A06928440079022101F0D3F9A069E6
:10229000401CA061A16A8142F3D8ABE7002000F0A6
:1022A000BFF8401C28D0454800F063F9D9F8000079
:1022B0006062D9F80400A062002804BF4FF44070A7
:1022C000A06246A001F0F8F90821DAF80C0001F04C
:1022D000B1F92C2001F0A2F90821606A01F0AAF9F5
:1022E0002C2001F09BF90821A06A01F0A3F9AFF2BC
:1022F000CC1001F0E1F953E53AA001F0DDF9E66018
:1023000008B0BDE8F0871020E061102901D2E1613A
:10231000B9B33AA001F0D0F90821606A01F08AF956
:102320002C2001F07BF90221E06901F083F92C20D7
:1023300001F074F9606A694600F580321F48E3696C
:1023400000F020F9F0B1A661E06900280BD9A0697E
:10235000022118F8000001F06DF9A069401CA0618D
:10236000E1698142F3D8AFF2442001F0A5F9616A36
:10237000E06901446162A16A081AA06208B0BDE880
:10238000F0870AE0AFF26C2001F096F91DA001F091
:1023900093F9E66008B0BDE8F0871EA001F08CF963
:1023A000E66008B0BDE8F0874552524F52205752C0
:1023B000495445002B57484558533A0038000020EF
:1023C0002B574845584C3A004552524F52204C49E1
:1023D0004E452053495A45002B0000002B525245D0
:1023E00047533A002B52524547453A4552524F52B5
:1023F0002044455649434549440D0A002B52524555
:1024000047503A002B52524547453A4552524F5297
:102410000D0A00002B52524547453A4F4B0D0A001A
:102420002DE9F0471427DFF88080DFF8809006461A
:1024300001244FF47A7A00BF16F0010F1AD001255B
:10244000194800F0F4F80A2C24BF0A25642C05D39F
:102450006425B4F57A7F28BF4FF47A752C44B4F51F
:102460007A7F03D22046FEF7B3FD03E0B4FBFAF017
:10247000FEF7F6FD16F0020F1CBF0B4800F079F8CE
:10248000094800F0BFF8D8F81C10494518BFBDE84E
:10249000F0874FF0FF300326002F1CBF781E87B255
:1024A000CAD1BDE8F0870000380000207943000859
:1024B0002DE9F04704460D464FF00008A669BEB16D
:1024C000B5FBF6F000F0FF09A06900FB09F52A460C
:1024D00000212046A369FDF7F5FF07462FB1FF2035
:1024E000B0EB272F03D1804601E04FF0010800BF79
:1024F0004046BDE8F0872DE9F04104460D4600272F
:10250000A6699EB1B5FBF6F000F0FF0841462046F3
:10251000FEF74AFB28B129462046FFF7C9FF0746C8
:1025200003E0A06A401CA062002700BF3846BDE857
:10253000F0812DE9F04104460F460025062612E001
:1025400039462046FFF7D7FF0546FF2D00D10CE0A6
:10255000A06A401CA062204600F069F8204600F006
:1025600008F8701EC6B2002EEAD100BF2846BDE8AA
:10257000F08110B50446002201212046FEF7EFFA53
:10258000012010BD2DE9F84306460F4614461D46AE
:102590004FF00008200E02D001282FD108E02B4672
:1025A000224639463046FDF78DFF00F0FF0825E052
:1025B000C4F3074020B101280CD002281CD113E03D
:1025C0000920EBB22246394600903046FEF728FC3F
:1025D000804611E00B20EBB222463946009030468F
:1025E000FEF71EFC804607E0EBB2E2B23946304609
:1025F000FEF767FA804600BF00BF00BF00BF40463D
:10260000BDE8F88310B504464FF0FF30E060204687
:10261000FEF773FAE060E068A0F57F41FF3901D171
:10262000481EE060204600F02DF8E06810BD10B5AF
:1026300004462046FEF7C4FB012010BD2DE9F04101
:1026400005460E461746984600242846FFF791FF98
:1026500043463A4631462846FDF7BAFF044604B9D8
:1026600000BF2046BDE8F08170B505460C46012C40
:1026700004D12846FEF78EF9C0B270BD00BF00BF7E
:102680000020FAE72DE9F04705460027B84600206C
:1026900028616861A8614548E8612862B42085F82E
:1026A000240000247BE016F0800F0CD04049601C11
:1026B000085C012805D1A01C0F5CE01C01EB0008A0
:1026C00000E000BF68E0002F66D13949601C095C5A
:1026D000374AA01C105C41EA0021E01C105C41EA72
:1026E0000041201D105C41EA006909F0FF00297BD0
:1026F000884250D1BA461146601D095CA01D105C8D
:1027000041EA0021E01D105C41EA004104F10800AB
:10271000105C41EA00602861114604F10900095C7F
:10272000401C105C41EA002104F10B00105C41EAFE
:10273000004104F10C00105C41EA00606861114640
:1027400004F10D00085C012804D0022805D00328FC
:1027500009D105E04FF4807A05E04FF4007A02E0F9
:102760004FF4806A00BF00BFC5F818A0104904F1FB
:102770000E000844E861E869FDF70FFD04F10E0161
:102780000844401C0A49085C85F82400C5F82080EC
:102790000120BDE8F08700BF06F07F000444044834
:1027A000065D002E7FF47FAF0020F2E7794300083A
:1027B0003C430008034A516821F440410143516001
:1027C0007047000000100240044A0029916901D0BE
:1027D000014300E081439161704700000010024016
:1027E000044A0029D16801D0014300E08143D1604F
:1027F000704700000010024030B521494A68214B63
:1028000012F00C0203D0042A03D0082A03D003607C
:1028100015E01D4A12E04A68022302F4701203EB2D
:1028200092424B6813F4803F04D04B689B0303D55E
:10283000164B02E0164B00E0134B5A4302604A6805
:102840000F23144C03EA12120368A25CD3404360C6
:102850004A68072505EA1222A25C23FA02F2826086
:102860004A6805EAD222A25CD340C36049680322C9
:1028700002EA9131221F515CB3FBF1F1016130BDDD
:102880000010024000127A00001BB700808D5B0030
:1028900000093D004C470008F0B5A1B00F460446C2
:1028A00080222F496846FDF766FC2EA000F004FF49
:1028B000204600F0B9FE24B1012C08D0022C0CD027
:1028C00042E00E2229A16846FDF755FC3CE01222A9
:1028D0002AA16846FDF74FFC36E000252C4E6C46D9
:1028E000052F22D2DFE807F0030910161C0020464E
:1028F00028A101F072F9356917E029A1D1E9000199
:10290000CDE90001756810E0204627A101F073F9B8
:10291000B5680AE0204627A101F06DF9F56804E0EA
:10292000204627A101F059F935686846FDF735FCC6
:1029300002190021284601F07FFB6846FDF72DFCB7
:10294000204422A101F052F92C2000F067FE6846D5
:1029500000F0B2FE1FA000F0AFFE21B0F0BD0000FD
:10296000C84600082B494E464F3A000043322050DB
:10297000726F6772616D6D6572000000456E7469FB
:1029800072652047726F757020323032300000005F
:102990000C020020414443434C4B203D20000000EA
:1029A00048434C4B203D200050434C4B31203D20B0
:1029B0000000000050434C4B32203D20000000003E
:1029C000535953434C4B203D2000000020487A20AF
:1029D000000000000A0D000070B5234D002029887A
:1029E000002908BF70BD012918BF70BD95F82400EB
:1029F00010F0080F06D0287A10F0040F0CBF022048
:102A000000202BE0042000F035F90146164801F0C3
:102A100081F9044610F0010F1DD004F44070B0F5A8
:102A2000007F04BF052000F025F94FF44070A0435B
:102A300004BF062000F01EF904F44060B0F5006FFA
:102A400004BF072000F016F94FF44060A04304BF14
:102A5000082000F00FF9012020EA9400A98C81F0F1
:102A60000801A98470BD0000C400002070B582B0C8
:102A7000FFF7B2FF0021294C002836D0012804BFFF
:102A800002B070BD02281CBF02B070BD4FF40870C8
:102A9000234D6860286B20F001002863E86920F06E
:102AA0000100E8611F4EB08820F00300B0800023D1
:102AB000009101911A461946022000F093F86078BF
:102AC00020F00C006070607840F001006070B08809
:102AD00040F00300B080E86940F00300E861286B33
:102AE00040F00300286302B070BD607840F004003D
:102AF00060702169002904BF02B070BD04208847BE
:102B000060780C2131EA00001CBF02B070BD0220C9
:102B1000216902B0BDE8704008470000A400002011
:102B2000000002400030014070B582B0FFF754FF52
:102B30000021294C002836D0012804BF02B070BD06
:102B400002281CBF02B070BD4FF40870234D6860AE
:102B5000286B20F001002863E86920F00100E8619B
:102B60001F4EB08820F00300B08000230091019137
:102B70001A461946022000F035F8607820F00C0063
:102B80006070607840F001006070B08840F0030031
:102B9000B080E86940F00300E861286B40F0030072
:102BA000286302B070BD607840F008006070216951
:102BB000002904BF02B070BD0820884760780C214E
:102BC00031EA00001CBF02B070BD0220216902B0D2
:102BD000BDE8704008470000A4000020000002404B
:102BE0000030014070B4DFF880C0DDE9036443F2D7
:102BF000100500B31D4C012807BFC4E90312A382CE
:102C0000022870BC18BF70470120CCF83400184966
:102C1000CCF83C10CCF83050CCF82000481CCCF854
:102C200028004FF44050CCF81C00A08C20F0080085
:102C3000A08470BC7047CCF83430CCF83C10301C09
:102C400018BF80202843CCF83000CCF82030CCF8D6
:102C50002820002C0CBF0020802040F44050CCF8ED
:102C60001C0070BC7047000000000240C40000203F
:102C7000AA00002070B50024A8B90C4D012340F231
:102C800032320521284600F0CFFF012340F2023204
:102C90000621284600F0C8FF012340F23232072106
:102CA000284600F0C1FF204670BD0000000801402A
:102CB00070B5234D00202988002908BF70BD012967
:102CC00018BF70BD95F8240010F0080F06D0287AC0
:102CD00010F0040F0CBF022000202BE0042000F0B5
:102CE00035F90146164801F015F8044610F0010FB9
:102CF0001DD004F44070B0F5007F04BF052000F043
:102D000025F94FF44070A04304BF062000F01EF9DF
:102D100004F44060B0F5006F04BF072000F016F91E
:102D20004FF44060A04304BF082000F00FF90120D9
:102D300020EA9400A98C81F00801A98470BD0000EC
:102D4000EC00002070B582B0FFF7B2FF0021294CE3
:102D5000002836D0012804BF02B070BD02281CBF75
:102D600002B070BD4FF40870234D6860286B20F0EE
:102D700001002863E86920F00100E8611F4EB08877
:102D800020F00300B0800023009101911A461946FB
:102D9000022000F093F8A07820F00C00A070A0783A
:102DA00040F00100A070B08840F00300B080E869F6
:102DB00040F00300E861286B40F00300286302B094
:102DC00070BDA07840F00400A0706169002904BFC4
:102DD00002B070BD04208847A0780C2131EA0000C1
:102DE0001CBF02B070BD0220616902B0BDE8704036
:102DF00008470000A400002000000240003001400D
:102E000070B582B0FFF754FF0021294C002836D05E
:102E1000012804BF02B070BD02281CBF02B070BD03
:102E20004FF40870234D6860286B20F00100286380
:102E3000E86920F00100E8611F4EB08820F003002F
:102E4000B0800023009101911A461946022000F03B
:102E500035F8A07820F00C00A070A07840F00100B8
:102E6000A070B08840F00300B080E86940F0030033
:102E7000E861286B40F00300286302B070BDA078C1
:102E800040F00800A0706169002904BF02B070BD65
:102E900008208847A0780C2131EA00001CBF02B04E
:102EA00070BD0220616902B0BDE8704008470000B3
:102EB000A4000020000002400030014070B4DFF8A0
:102EC00080C0DDE9036443F2100500B31D4C012806
:102ED00007BFC4E90312A382022870BC18BF704761
:102EE0000120CCF834001849CCF83C10CCF8305014
:102EF000CCF82000481CCCF828004FF44050CCF807
:102F00001C00A08C20F00800A08470BC7047CCF896
:102F10003430CCF83C10301C18BF80202843CCF84B
:102F20003000CCF82030CCF82820002C0CBF00203A
:102F3000802040F44050CCF81C0070BC704700006A
:102F400000000240EC000020AC00002070B500251D
:102F500010BB124C012340F232320521204600F012
:102F600063FE0F480178B9B90E490A8822F0BB0206
:102F700022F4206202F223220A800B494A6842F0BE
:102F8000010242F0E0624A60216821F4704141F49C
:102F90003041216001210170284670BD000C0140C4
:102FA000A4000020003001400000014010B50020C6
:102FB000FFF7CCFF01490020088010BDEC00002085
:102FC00010B5012186B00803FFF7FEFB0020ADF825
:102FD00000004FF48271ADF80210ADF80400022138
:102FE000ADF806100121ADF808104902ADF80A103D
:102FF0002021ADF80C10ADF80E000720064CADF8FE
:1030000010006946204600F0C1F90121204600F079
:10301000AFF906B010BD00000030014070B5234D7F
:1030200000202988002908BF70BD012918BF70BD84
:1030300095F8240010F0080F06D0287A10F0040F3D
:103040000CBF022000202BE0042000F035F90146DF
:10305000164800F05FFE044610F0010F1DD004F486
:103060004070B0F5007F04BF052000F025F94FF453
:103070004070A04304BF062000F01EF904F4406035
:10308000B0F5006F04BF072000F016F94FF4406060
:10309000A04304BF082000F00FF9012020EA9400AB
:1030A000A98C81F00801A98470BD000020030020D4
:1030B00070B582B0FFF7B2FF0021294C002836D04E
:1030C000012804BF02B070BD02281CBF02B070BD51
:1030D0004FF40830234D6860A86D20F00100A8650A
:1030E000686C20F0010068641F4E308820F00300F7
:1030F00030800023009101911A461946022000F009
:1031000093F8E07820F00C00E070E07840F00100E7
:10311000E070308840F003003080686C40F00300BD
:103120006864A86D40F00300A86502B070BDE07847
:1031300040F00400E070A169002904BF02B070BD36
:1031400004208847E0780C2131EA00001CBF02B05F
:1031500070BD0220A16902B0BDE8704008470000C0
:10316000A4000020000002400438004070B582B086
:10317000FFF754FF0021294C002836D0012804BF56
:1031800002B070BD02281CBF02B070BD4FF4083001
:10319000234D6860A86D20F00100A865686C20F0E0
:1031A000010068641F4E308820F003003080002347
:1031B000009101911A461946022000F035F8E07896
:1031C00020F00C00E070E07840F00100E070308802
:1031D00040F003003080686C40F003006864A86D24
:1031E00040F00300A86502B070BDE07840F0080030
:1031F000E070A169002904BF02B070BD08208847B3
:10320000E0780C2131EA00001CBF02B070BD022042
:10321000A16902B0BDE8704008470000A40000208A
:10322000000002400438004070B4DFF880C0DDE9DF
:10323000036443F2100500B31D4C012807BFC4E925
:103240000312A382022870BC18BF70470120CCF87B
:103250005C001849CCF86410CCF85850CCF8480001
:10326000481CCCF850004FF44050CCF84400A08CDF
:1032700020F00800A08470BC7047CCF85C30CCF81B
:103280006410301C18BF80202843CCF85800CCF8BC
:103290004830CCF85020002C0CBF0020802040F497
:1032A0004050CCF8440070BC704700000000024061
:1032B00020030020AE00002070B50024294D2A49CB
:1032C00009284DD2DFE800F0054C214C3B40434635
:1032D0004900012340F232320D21284600F0A4FCBF
:1032E000012340F202320E21284600F09DFC01230A
:1032F00040F232320F21284600F096FC01233022A2
:103300000C21284600F090FC2AE0012330220D21F8
:10331000284600F089FC012340F202320E212846A3
:1033200000F082FC012330220F21284600F07CFCB3
:10333000012330220C21284600F076FC10E00B48D7
:103340000088C0F380340BE04FF0004007E04FF0FE
:10335000802004E04FF0005001E04FF02020086092
:10336000204670BD000C0140100C0140080C0140CB
:103370000029018802D041F0400101E021F0400124
:1033800001807047808970478181704730B502881D
:103390004C8802F441530A88CD8822438C882C4300
:1033A00022430C8922434C8922438C892243CC89B5
:1033B00022431A430280828B22F400628283098AAC
:1033C000018230BD10B5094C0146208910F0020F72
:1033D000FBD02046FFF7D8FF2046018911F0010FEE
:1033E000FBD0FFF7CFFFC0B210BD0000003001409E
:1033F00010B500BF0123302208215B4800F014FC07
:1034000000BF00BF012330220921574800F00CFC07
:1034100000BF00BF012330220E21544800F004FCFD
:1034200000BF00BF012330220F21514800F0FCFBF8
:1034300000BF00BF0123302204214B4800F0F4FB01
:1034400000BF00BF012330220621474800F0ECFBFB
:1034500000BF00BF002301220321434800F0E4FB2A
:1034600000BF00BF002301220D21404800F0DCFB1B
:1034700000BF00BF012340F202320F213B4800F0A1
:10348000D3FB00BF00BF012330220421384800F0E5
:10349000CBFB00BF00BF012330220821344800F0DD
:1034A000C3FB00BF00BF012330220621304800F0DB
:1034B000BBFB00BF00BF0123302200212D4800F0DC
:1034C000B3FB00BF00BF012330220B21264800F0D0
:1034D000ABFB00BF00BF012330220A21224800F0CD
:1034E000A3FB00BF00BF012330220D211E4800F0C6
:1034F0009BFB00BF00BF012330220C211A4800F0C3
:1035000093FB00BF00BF012330220321184800F0C5
:103510008BFB00BF00BF012330220221144800F0C2
:1035200083FB00BF00BF012330220B21104800F0B5
:103530007BFB00BF00BF0123302219460C4800F07E
:1035400073FB00BF00BF002330221946064800F07D
:103550006BFB00BF00BF002301221146024800F0B0
:1035600063FB00BF10BD0000000C014000100140D3
:1035700000080140001401402DE9F047DFF894A055
:1035800006000C4627D0002C08BFBDE8F087224F6C
:103590004FF020084FF0E029B8882546A84238BFF0
:1035A000BD881D4800F05EFDA842FAD3C9F88481A9
:1035B000AAB23146184800F0C4FD012240F227713A
:1035C000504600F02DFAC9F80481A8B20644241A26
:1035D000E2D1BDE8F087200C08BF8CB207D088B2DA
:1035E00000F030F8BDE8F047042000F067B90A4861
:1035F00000F0A1FD0028FAD14021504600F0EAF980
:103600000028F4D0052000F059F92046BDE8F04725
:1036100000F018B8003801409400002001B50121E5
:103620006846FFF7A9FF08BD014A002100F02ABC47
:103630001D36000841F48051014A00F023BC00000F
:103640001D360008F8B51A4D04461A4800F073FDFF
:103650000028FAD14021284600F0BCF90028F4D017
:10366000002C08BFF8BD022000F028F9322C38BF2A
:10367000FF2615D28DF8006001216846FFF77CFF18
:10368000601E0404240CF5D10A4800F054FD002803
:10369000FAD14021284600F09DF90028F4D002E03C
:1036A0002046FDF795FCBDE8F840032000F006B980
:1036B000003801409400002010B50446FCF76DFD71
:1036C00001462046BDE81040FFF756BF10B586B052
:1036D0004FF40040FFF76EF801214802FFF774F83D
:1036E000154C2046FCF7AAFD00214FF46020CDE9DF
:1036F00002018DF80410042000918DF805108DF85A
:10370000100069462046FCF7CFFD01212046FCF75A
:103710008BFD2046FCF726FE2046FCF7BEFD002868
:10372000FAD12046FCF72DFE2046FCF7A5FD002827
:10373000FAD106B010BD00000024014010B50020F1
:1037400009490870FDF7E6FB10B1012805D100E03A
:1037500003E001200449087000BF00BF4FF0402083
:103760000249086110BD0000640000200010014003
:1037700010B500F087FD10BD10B50121014800F023
:1037800003F810BD00040040C943018270470000E7
:1037900010B412481249134B0068134AB0FBF1F001
:1037A0005968D2F800C01C68A1EB0C0144F0010478
:1037B0001C600E4B1C6844F080741C60A2F10C036A
:1037C000814207D3B1FBF0F101FB00C01060186823
:1037D000084418600648406810BC70470C0200207E
:1037E00040420F00001000E078000020FCED00E0F7
:1037F0006800002010B412481249134B0068134AA5
:10380000B0FBF1F05968D2F800C01C68A1EB0C01C4
:1038100044F001041C600E4B1C6844F080741C6072
:10382000A2F10C03814207D3B1FBF0F101FB00C010
:1038300010601868084418600648806810BC70471B
:103840000C02002040420F00001000E07C0000202D
:10385000FCED00E06800002010B413484FF47A71CA
:10386000124B0068124AB0FBF1F05968D2F800C060
:103870001C68A1EB0C0144F001041C600D4B1C689A
:1038800044F080741C60A2F10C03814207D3B1FBA9
:10389000F0F101FB00C01060186808441860064889
:1038A000C06810BC704700000C020020001000E04F
:1038B00080000020FCED00E06800002010B51F4CE7
:1038C000042828BF10BDDFE800F0021528300021D1
:1038D0004FF48040FEF778FF01231A460921204665
:1038E00000F0A2F901232046BDE810401A460A2143
:1038F00000F09AB901218803FEF766FF0123332205
:103900000921204600F090F920460123BDE810402F
:1039100040F202220A2100F087B901232046BDE8C7
:1039200010401A46092100F07FB9204601233322B6
:10393000BDE81040092100F077B9000000080140FF
:1039400038B51C4C40F22551204600F04AF898B199
:10395000204600F0C3F88DF80000174800F082FB05
:1039600020B101226946144800F0EBFB012240F22D
:103970002771204600F054F840F22771204600F0ED
:1039800030F8002808BF38BD0C4800F0D4FB40B127
:103990000A4800F0C1FB01462046BDE8384000F06F
:1039A000A1B82046BDE83840002240F2277100F05F
:1039B00037B8000000380140840000209400002047
:1039C0000029818902D041F4005101E021F4005125
:1039D000818170470246002012880A4200D00120EF
:1039E000704730B501F01F0201240025C1F34213D6
:1039F00004FA02F2012B0FD0022B0FD0838A4FEA78
:103A000011210088134204FA01F400EA040001D0F5
:103A100000B10125284630BD8389F0E7038AEEE72F
:103A200010B5C1F3421301F01F040121A140012B85
:103A300007D0022B07D01430002A026805D00A43B1
:103A400004E00C30F8E71030F6E78A43026010BD5E
:103A500030B50446008A85B00D464CF6FF7108402B
:103A6000E98801432182A1894EF6F3100140A8881C
:103A70002A8910436A890A431043A081A08A4FF61D
:103A8000FF410840A9890143A1826846FEF7B4FEC0
:103A90001148844201D1039800E00298642200EBAF
:103AA000C00101EB001029686FF018058900B0FB18
:103AB000F1F0B0FBF2F109010B096B4300EB83005D
:103AC000322303EB0010B0FBF2F000F00F000843CC
:103AD000208105B030BD0000003801408088C0F36F
:103AE00008007047C1F308018180704770B5054632
:103AF00086B00C460120FFF7E1FE2B4E0021304638
:103B0000FFF75EFF294800F016FB0146274800F04A
:103B100097FA2209002104F00F00012A08BF4FF490
:103B2000C0623ED0022A14BF00224FF4806238D017
:103B3000002808BF4FF4805009D0022808BF4FF476
:103B4000005004D0032814BF00204FF440500095CB
:103B5000ADF80410ADF80600ADF808200C200024E4
:103B6000ADF80A00ADF80C4069463046FFF770FF2B
:103B700025208DF810008DF811408DF8124001209D
:103B80008DF8130004A8FDF765FD012240F22551D0
:103B90003046FFF745FF01213046FFF711FF06B021
:103BA00070BD4FF48051C3E700380140840000200D
:103BB00000B582B000680090FFF74EFE019001A9A9
:103BC000684600F044F902B000BD30B50C46054629
:103BD000FFF742FE2044286030BD0A684B6802604F
:103BE0004360B1F808C0A0F808C070470A680260D6
:103BF0000B79037170470A684B680260436091F863
:103C000008C080F808C0704702E008C8121F08C149
:103C1000002AFAD170477047002001E001C1121F4D
:103C2000002AFBD1704700002DE9F84F0D463849B6
:103C30000446401A1E4690468C4204BF01212020B3
:103C40002AD011DCA4F18040B0F584301FD0B0F54B
:103C5000806F04BF012108201ED0B0F5006F04BFA3
:103C60000121102018D019E0B0F5806F04BF0121A8
:103C7000402011D0B0F5006F04BF012180200BD08F
:103C8000B0F5406F04BF0121080205D006E0012114
:103C90000420FEF799FD01E0FEF796FD4FEA1810AB
:103CA00000F00F010009009008F00F07D4E900A907
:103CB00041EA870BAA0090460F200021FCF74CFA3E
:103CC0002AEA000A29EA0109424658460021FCF77F
:103CD00043FA4AEA000049EA0101C4E9000101206F
:103CE00057B1E168A8408143009800F00100A84066
:103CF0000843E060BDE8F88F002E14BF01210021C9
:103D0000A94045F01002904008432061BDE8F88FBB
:103D100000140140F0B402884FF0000C012A7AD15F
:103D2000428C038C9A423CBF511C418473D342881D
:103D300000244484052A60D2DFE802F003090D174D
:103D40002700017F41774FF0020C511C78E0437F40
:103D5000521CC37792B2C37F002B1CBF591EC17780
:103D60006FD1837F521CC37792B2838A002B45D0D8
:103D7000C368002B0FBFFF2303F1010CC0F80CC078
:103D80001B78C382521C848092B28488858CC4F3D1
:103D9000470315F0040F19BF4FF0010C0CFA03F3A1
:103DA0004FF0800C2CFA03F39BB2B0F816C004F06D
:103DB000010605F001070CEA030CBE420CBF40F6F9
:103DC000010740F60147BCF1000F14BF40F2013C6F
:103DD00040F2012C47EA0C0CC5F34005AE4207D176
:103DE000058B002914BF45EA030125EA030101837D
:103DF000611C89B28180102916D022E0C17F002980
:103E000019BF491EC17700224FF0040C90F824100E
:103E100011F0010F00E015E014BF40F6014140F63B
:103E2000010141EA0C0C0CE001694CF0080C19B1DD
:103E3000037E4C1C04610B70818A491E8182511ED5
:103E40008AB24280C0F808C0F0BC604670470246A3
:103E500001201268002A08BF70470968511A11F042
:103E6000604F08BF00207047FDF720FB01214FF491
:103E7000E120FFF73BFEFDF735FB01E0FDF7C6FB58
:103E8000FCE700002DE9F04F174665A3044689467C
:103E9000D3E90002D3E9021385B009F00F08CDE998
:103EA00000020291C9F30710CDE903303E4619F430
:103EB000405506D0B5F5805F18BFB5F5005F46D018
:103EC000A5E014F0004F0BD019F4004F4FF02D0077
:103ED0001ABF30707E1CB8476442049820B901E0D4
:103EE000049808B930200490514D4FF00A0A4FF061
:103EF000300B3020A54204D8401C641BC0B2A54240
:103F0000FAD94BEA000BBBF1300F08BF302803D1C0
:103F1000BAF1010F18BF0498C24508D9BAF1010FD0
:103F200005D0B8F1000F08D1BBF1300F05D019F45E
:103F3000004F14BF06F8010BB8473E48A0FB051020
:103F4000C508AAF1010010F0FF0AD2D15FE0B8F174
:103F5000000F29D0C8F1080080008440A8F10100BA
:103F600000F0FF0AB8F1000F1CBFEB464FF030081D
:103F70004DD000BFB5F5805F2AD019F4004F08EB93
:103F8000D4702FD006F8010BC4F38070303006F8DF
:103F9000010BC4F34070303006F8010BC4F300701D
:103FA000303006F8010B2AE014F07F4F18BF4FF0B5
:103FB0000808CFD114F47F0F18BF4FF00608C9D1FD
:103FC00014F47F4F14BF4FF004084FF00208C1E70C
:103FD0000BEB147019F4004F007814BF06F8010BB6
:103FE000B8470CE0B847C4F380703030B847C4F32A
:103FF00040703030B847C4F300703030B847240107
:104000005FEA0A00AAF1010101F0FF0AB2D119F436
:10401000004F1CBF0020307005B0BDE8F08F0000DD
:1040200030313233343536373839414243444546EE
:1040300000CA9A3BCDCCCCCC41F40041FFF722BF63
:104040008268002A08BF704742880388D21A838892
:104050001A408A4238BF11460288114482881140B2
:104060000180704741880288891A828880881140BF
:10407000401A704708B500228DF8002001236A46D7
:1040800000F004F89DF8000008BD00002DE9F0479D
:1040900004464088B4F800C0A0EB0C00B4F804C09B
:1040A0004FF0000900EA0C06A068002818BFB142D2
:1040B0002FD2208817460844CA1880B2B24284BF63
:1040C000721A93B28946A16819B3B4F804A09E424B
:1040D00000EA0A0888BF1E46DEB100BFAAEB08004E
:1040E000401C85B2B54288BF3546A0682A4600EB21
:1040F00008013846FCF73FF808EB050000EA0A081B
:10410000701B060409EB0500360C1FFA80F92F44DA
:10411000E4D14846BDE8F0878268FF214AB10188B2
:1041200082680A44491C01801178028883881A40F9
:10413000028008467047418802888088891A0840B2
:1041400070472DE9F0430446806883B016468846E0
:104150000F46154600283ED0B4F80490002D3AD002
:10416000608800EA0900ADF80400BDF80400A9EB7E
:104170000000401CADF80000BDF80000A84288BF58
:10418000ADF8005061882088091AA0880840A188ED
:10419000081ABDF800108842F4D3A168BDF80400E5
:1041A000BDF8002008443946FBF7E5FFBDF80400E0
:1041B000BDF80010084400EA0900ADF80400BDF89D
:1041C00004106180BDF800000744BDF80000281A03
:1041D00005042D0CC4D1E068002804BF03B0BDE87D
:1041E000F083E06841880288891A828880881140BB
:1041F000401A80B2864288BF0646002E3ED0E46850
:104200003546A068002818BFA78837D06088384096
:10421000ADF80400BDF80400381A401CADF80000E9
:10422000BDF80000A84288BFADF800506088218822
:10423000401AA1880840A188081ABDF800108842D9
:10424000F4D3A068BDF80410BDF80020084441462E
:10425000FBF791FFBDF80400BDF80010084438409A
:10426000ADF80400BDF804006080BDF80000804493
:10427000BDF80000281A05042D0CC7D103B0304644
:10428000BDE8F08300B500BF30201B49086000BFC7
:1042900000BF1A481A4948601A48086000BF00BFAA
:1042A0001748006810F0020FFAD000BF14480068E9
:1042B00010F0007FFAD000BF1148406800F00C00F9
:1042C0000828F9D100BF00BF00BF002000F01EF891
:1042D00000BF0B48806940F00100094988610A4825
:1042E000406820F0E060084948600846406840F0B7
:1042F0000070486000BF00BD0020024002002A009C
:10430000001002407B00000100000140014601292D
:1043100006D0022907D0032908D004290CD108E0CF
:104320004FF47A70704740F2DF30FBE74FF47A7059
:10433000F8E74FF4FA70F5E70020F3E78A0100533D
:10434000694C61627300191604000000000000004F
:104350008000000343383035314639327800B419D3
:104360000F0200000000000000FC00000243383093
:1043700035314633343000AD00554E4B4E4F574E1D
:10438000000000001341542B4B45593D00022C0006
:1043900002000100FF34ED094154000100FF0090CC
:1043A0000B41544530000100FF01900B4154453151
:1043B000000100FF02901A41542B52424C4B3D0029
:1043C000022C00022C00022C0002000100FF03A0BE
:1043D0001741542B52424C4B3D00022C00022C0042
:1043E00002000100FF03A01441542B52424C4B3DEC
:1043F00000022C0002000100FF03A01141542B52C7
:10440000424C4B3D0002000100FF03A00F41542B22
:1044100052424C4B3D000100FF03A00E41542B5271
:10442000424C4B000100FF03A01552422000022C19
:1044300000022C00022C0002000100FF03A0125217
:10444000422000022C00022C0002000100FF03A009
:104450000F52422000022C0002000100FF03A00CBA
:104460005242200002000100FF03A0095242000155
:1044700000FF03A00C5753200002000100FF04A01E
:10448000095753000100FF04A00F57422000022CDF
:104490000002000100FF06A00C57422000020001AC
:1044A00000FF05A01241542B57424C4B533D0002D4
:1044B000000100FF04A01041542B57424C4B533DC8
:1044C000000100FF04A00F41542B57424C4B5300F6
:1044D0000100FF04A01441542B57424C4B3D0002F5
:1044E0002C0002000100FF06A01141542B57424C42
:1044F0004B3D0002000100FF05A00F41542B52521A
:1045000045473D000100FF80A00E41542B5252450B
:1045100047000100FF80A0095252000100FF80A067
:104520000C5748200002000100FF07A0095748006F
:104530000100FF07A0123A303030303030303146C1
:1045400046000100FF0AA00A3A0002000100FF092C
:10455000A01241542B57524845583D00020001001B
:10456000FF07A01041542B57524845583D00010009
:10457000FF07A00F41542B5752484558000100FF38
:1045800007A00B49200002000100FF00A00849001D
:104590000100FF00A00F41542B49442000020001FC
:1045A00000FF00A00C41542B4944000100FF00A073
:1045B0000841000100FF0BA01041542B4745545601
:1045C0004343000100FF0BA01341542B53455456A5
:1045D00043433D0002000100FF0CA00C5057200097
:1045E00002000100FF0CA010494E492000022C00DF
:1045F00002000100FF0DA00D494E492000020001FC
:1046000000FF0DA00F53502000022C0002000100FB
:10461000FF0EA00C5350200002000100FF0EA0105E
:104620005350532000022C0002000100FF0FA00D88
:10463000535053200002000100FF0FA00D53504EB5
:10464000200002000100FF10A00F4D432000022CAB
:104650000002000100FF00A10C4D432000020001F8
:1046600000FF00A1114D4352532000022C00020014
:104670000100FF01A10E4D43525320000200010032
:10468000FF01A10D44424752554E000100FF81A099
:104690001141542B4442473D52554E000100FF81C9
:1046A000A0095858000100FF02A00858000100FFAF
:1046B00001A00852000100FF20A00009004E4F5049
:1046C00000420A00000000003F3F3F20756E636E0D
:1046D0006F776E203F3F3F000000000000000000A9
:1046E00000000000000000000000000000000000CA
:1046F00000000000000000000000000000000000BA
:1047000000000000000000000000000000000000A9
:104710000000000000000000000000000000000099
:104720000000000000000000000000000000000089
:104730000000000000000000000000000000000079
:104740000000000000000000020406080000000055
:104750000102030401020304060708097C4700085C
:10476000000000203C010000CC010008A047000828
:104770003C0100200C060000183C000801321A0120
:1047800002E11AFF010114022BB4327F132002AAA6
:1047900020109AA010496609166A01220A510328BE
:0400000508000121CD
:00000001FF
